:100000000C948A020C949F100C9478100C9451104C
:100010000C942A100C94B2020C94B2020C940310AB
:100020000C94B2020C9479160C94C6100C943511F1
:100030000C94B2020C94B2020C94B2020C94B20270
:100040000C94B2020C94B2020C94B2020C94B20260
:100050000C94B2020C94B2020C94B2020C94B90F3C
:100060000C94B2020C94B2020C94B2020C94B20240
:100070000C94B2020C94B2020C94B2020C94B20230
:100080000C94B2020C94B2020C94B2020C94B20220
:100090000C9467130C94B2020C94B2020C94B2024A
:1000A0000C94B2020C9482140C94B2020000000072
:1000B0000000004F00000007000700147F147F14A9
:1000C000242A7F2A122313086462364955225000DD
:1000D00000070000001C2241000041221C001408FF
:1000E0003E081408083E08080050300000080808C0
:1000F0000808006060000020100804023E514945D5
:100100003E00427F400042615149462141454B310A
:100110001814127F1027454545393C4A4949300398
:10012000017109073649494936064949291E0036F1
:100130003600000056360000081422410014141442
:100140001414004122140802015109063249794170
:100150003E7E1111117E7F494949363E414141227F
:100160007F4141413E7F494949417F090909013E9B
:100170004149497A7F0808087F00417F41002040BB
:10018000413F017F081422417F404040407F020CE4
:10019000027F7F0408107F3E4141413E7F090909EB
:1001A000063E4151215E7F09192946464949493198
:1001B00001017F01013F4040403F1F2040201F3F81
:1001C0004038403F63140814630708700807615102
:1001D000494543007F41410002040810200041418D
:1001E0007F0004020102044040404040000102043C
:1001F0000020545454787F484444383844444420C0
:10020000384444487F3854545418087E0901020C7D
:100210005252523E7F0804047800447D4000204042
:10022000443D007F1028440000417F40007C0418BA
:1002300004787C0804047838444444387C1414144A
:1002400008081414187C7C080404084854545420EA
:10025000043F4440203C4040207C1C2040201C3C6B
:100260004038403C44281028440C5050503C4464D2
:10027000544C44000836410000007F000000413625
:1002800008000C02040806081C2A080800030C0FCA
:1002900030333C3FC0C3CCCFF0F3FCFF080B00026F
:1002A000020200000904000001020200000524000F
:1002B00010010524010101042402060524060001A1
:1002C0000705810310004009040100020A00000034
:1002D00007050202400000070583024000000403F6
:1002E000090412010002EF020140FB1F002300017C
:1002F00001020301506F6C6F6C7520436F72706F59
:10030000726174696F6E00506F6C6F6C7520412D57
:10031000537461722033325534003F00507265735C
:1003200073204320666F723A2000436861726769E8
:100330006E674D656E75005072657373204220665E
:100340006F723A20006C696E65466F6C6C6F770057
:100350005072657373204120666F723A200042200C
:10036000666F72204E4F004120666F7220594553D0
:100370000057616E7420746F2063616C69627261F2
:1003800074653F004261636B005072657373204374
:1003900020666F723A200044726976654C696E651A
:1003A0005374616E646172640050726573732042AD
:1003B00020666F723A200044726976654C696E65FA
:1003C000504944005072657373204120666F723A41
:1003D000200042617474657279206865616C74688C
:1003E0002000426174746572792070657263656E75
:1003F0007420004220666F72204E4F004120666FCD
:10040000722059455300446F20796F752077616ED3
:100410007420746F20636861726765004261636B6A
:10042000005072657373204320666F723A20004259
:1004300061747465727920736572766963650050C2
:1004400072657373204220666F723A2000436861C0
:100450007267696E67005072657373204120666F22
:10046000723A20004368617267696E67006E6F20A0
:100470006368617267696E6700426174746572795E
:100480002073657276696365000000000024002710
:10049000002A002D00300000000000250028002B5D
:1004A000002E003100000000002300260029002C4F
:1004B000002F0004040404040304050202020204E1
:1004C00003020202020606060606060404020202EF
:1004D0000404040802011040804010204080408045
:1004E00008020401804020100201108010204040CA
:1004F000200000000200090F0000030401000C00AE
:1005000000000000000000000000000000000000EB
:10051000F7164E1C11241FBECFEFDAE0DEBFCDBFB1
:1005200011E0A0E0B1E0E0EBFEE302C005900D9227
:10053000AA38B107D9F723E0AAE8B1E001C01D92BB
:10054000A73BB207E1F712E0C9E8D2E004C0219767
:10055000FE010E94EE1CC838D107C9F70E94771728
:100560000C944B1F0C9400005B9887FD5D9A87FFED
:100570005D985B9A5B9886FD5D9A86FF5D985B9AB5
:100580005B9885FD5D9A85FF5D985B9A5B9884FD1D
:100590005D9A84FF5D985B9A5B9883FD5D9A83FF0B
:1005A0005D985B9A5B9882FD5D9A82FF5D985B9A8D
:1005B0005B9881FD5D9A81FF5D985B9A5B9880FDF9
:1005C0005D9A80FF5D985B9A0895FC0180913502E9
:1005D000882311F13FB7F89482E08093E9002091DD
:1005E000F200822F90E01816190614F481E090E0D2
:1005F000882339F0289844E6409334024091F10072
:100600004083222339F02091F200211103C02BE610
:100610002093E8003FBF08958FEF9FEF08952FB715
:10062000F89483E08093E9009091E800892F80722C
:1006300095FF04C09091F20080E4891B2FBF0895BC
:1006400080912C0281110DC082E08093280284E009
:100650008093290210922B0210922A0281E080934B
:100660002C0288E292E0089581508F3008F047C054
:10067000E82FF0E0E25CFC4F0C94EE1C5B035F03A0
:100680004D03530357037F037F037F036203680314
:100690006C03700376037F037A03809180008F7769
:1006A000809380000895809180008F7DF9CF8091A4
:1006B0008000877FF5CF84B58F7784BD089584B59A
:1006C0008F7DFBCF809190008F778093900008956D
:1006D000809190008F7DF9CF80919000877FF5CF3A
:1006E0008091C0008F778093C00008958091C000F2
:1006F0008F7DF9CF8091C200877F8093C2000895DB
:10070000CF93DF93282F30E0F901EF50FB4F849116
:10071000F901EE52FB4FD491F901ED54FB4FC49116
:10072000CC23A1F081110E943403EC2FF0E0EE0FF6
:10073000FF1FEB55FB4FA591B491EC91ED2381E0A8
:1007400090E009F480E0DF91CF91089580E090E09F
:10075000FACF1F93CF93DF93282F30E0F901EF50AA
:10076000FB4F8491F901EE52FB4FD491F901ED5406
:10077000FB4FC491CC23A9F0162F81110E943403A2
:10078000EC2FF0E0EE0FFF1FE956FB4FA591B4915F
:100790008FB7F894EC91111108C0D095DE23DC934B
:1007A0008FBFDF91CF911F910895DE2BF8CFCF93AC
:1007B000DF9390E0FC01EE52FB4F24918D549B4F50
:1007C000FC0184918823C9F090E0880F991FFC01F7
:1007D000E757FB4FA591B491FC01E956FB4FC5913A
:1007E000D49161110DC09FB7F8948C91209582230C
:1007F0008C938881282328839FBFDF91CF91089510
:10080000623051F49FB7F8943C91822F80958323F6
:100810008C93E8812E2BEFCF8FB7F894EC912E2B91
:100820002C938FBFEACF8091AA028F3F61F061E0E5
:100830000E94D70360E08091AA020E94A9038BE185
:1008400093E00197F1F708958091AA028F3F61F03C
:1008500061E00E94D70361E08091AA020E94A9038F
:100860008BE193E00197F1F708953FB7F8948091F9
:10087000240290912502A0912602B091270226B56C
:10088000A89B05C02F3F19F00196A11DB11D3FBFC8
:10089000BA2FA92F982F8827BC01CD01620F711D97
:1008A000811D911D42E0660F771F881F991F4A9591
:1008B000D1F708958F929F92AF92BF92CF92DF921D
:1008C000EF92FF924B015C010E9435046B017C01A9
:1008D0000E9435046C197D098E099F09683E73409A
:1008E00081059105A8F321E0821A9108A108B108B9
:1008F00088EEC80E83E0D81EE11CF11C811491041F
:10090000A104B10429F7FF90EF90DF90CF90BF9042
:10091000AF909F908F90089508954091110250914B
:10092000120220910F023091100242175307B4F4C3
:100930009091E8009570E1F39091E80092FD19C064
:100940008093F100809111029091120201968F73B1
:100950009927892B19F48EEF8093E800809111027A
:10096000909112020196909312028093110281E0FD
:10097000089580E00895DF92EF92FF920F931F9306
:10098000CF93DF93D82E8A01EB017B01E40EF51E95
:10099000CE15DF0559F0D7FE12C0FE0184910E94EA
:1009A0008D0421968111F4CF0FEF1FEFC801DF9165
:1009B000CF911F910F91FF90EF90DF900895888164
:1009C000EECF0F931F93CF93DF931F92CDB7DEB778
:1009D00082E0898342E450E06CE972E080E80E94A2
:1009E000BB040E942003DC0112960D911C9101159D
:1009F000110589F0D801ED91FC910280F381E02D81
:100A0000BE016F5F7F4FC801099597FD04C0F801D3
:100A100000851185ECCF89810F90DF91CF911F91D7
:100A20000F910895615030F02091F100FC01208376
:100A30000196F8CF289884E68093340208958F9227
:100A40009F92AF92BF92CF92DF92EF92FF920F935D
:100A50001F93CF93DF936C017B018A018091150175
:100A6000882309F45CC080913502882309F457C0BB
:100A70008091150280FF05C08091E0008260809324
:100A8000E000E801B12C8AEFA82E93E0892E2AE33A
:100A9000922E209711F4BB20D9F10E940F038111EF
:100AA0000AC0AA94AA20D9F161E070E080E090E049
:100AB0000E945A04EECF8C171D0611F00CF08C2FFB
:100AC0009FB7F8948092E9002091E80025FD02C0CC
:100AD0009FBFDFCF282F30E0C21BD30BF70181501F
:100AE00020F041914093F100FACFE20EF31EBB20BB
:100AF00021F09092E800B12CEBCF8091E80085FDC9
:100B0000E7CF9092E800BB24B394209709F3F3CF8A
:100B10005D9884E680931402101611063CF081E083
:100B200090E0F6019383828310E000E0C801DF913A
:100B3000CF911F910F91FF90EF90DF90CF90BF90DA
:100B4000AF909F908F900895CF93DF931F92CDB772
:100B5000DEB76983DC01ED91FC910280F381E02D29
:100B600041E050E0BE016F5F7F4F09950F90DF912C
:100B7000CF91089583E08093E9008091F20088236B
:100B800019F08AE38093E80008950E940F0390E033
:100B90000895CF93DF931F92CDB7DEB7FC01848514
:100BA000958597FD08C02FEF3FEF358724870F907D
:100BB000DF91CF910895CE0101960E94E502019741
:100BC00019F4898190E0F3CF8FEF9FEFF0CF0F936F
:100BD0001F93CF93DF931F92CDB7DEB78C01FC013B
:100BE0008485958597FF0BC0CE0101960E94E50292
:100BF000019771F4898190E0F80195878487F80165
:100C0000848595850F90DF91CF911F910F91089565
:100C10008FEF9FEFF1CFFC018485958597FD0BC089
:100C20009FB7F89482E08093E9008091F2009FBF23
:100C300090E0019608959FB7F89482E08093E900D0
:100C40008091F2009FBF90E008952091C501260F8A
:100C50003327331F21323105ECF42091E901FC01E7
:100C600090E080E0243069F082E00895A091C50111
:100C70002191AC014B555E4FA40FB52FB11D2C93A4
:100C80000196861798F38091C501680F6093C5019E
:100C900080E0089581E0089508958FEF9FEF089513
:100CA0008FEF9FEF089580919E0190E0919581953F
:100CB00091090895CF93DF93CB01EA01642F0E943D
:100CC0002506CE01DF91CF910895CF93DF931F9238
:100CD000CDB7DEB7698361E0CE0101960E9425069B
:100CE00081E090E00F90DF91CF91089580919B017A
:100CF000E0919C01F0919D01882339F084919FEB54
:100D0000980F9A3120F4805E08958081F8CF803268
:100D100069F420919C0130919D01A9014F5F5F4FC3
:100D200050939D0140939C01232B01F708951F933D
:100D3000CF93DF930E947606D0E0C0E01AE090EDFA
:100D4000980F9A30B8F41C9F90011D9F300D11240C
:100D5000E901C80FD11D87FDDA95E09780919C01CC
:100D600090919D01019690939D0180939C010E941A
:100D70007606E5CFCE01DF91CF911F9108953F9286
:100D80004F925F926F927F928F929F92AF92BF929B
:100D9000CF92DF92EF92FF920F931F93CF93DF9347
:100DA0007B01D42E2091980121111BC021E02093BA
:100DB0009801109272001092C00034E03093C1008C
:100DC00039E03093C2002093C30023E02093BF009A
:100DD00028EE2093D1001092BF001092D200579AB3
:100DE000789410920901CC24C39497FF03C09F7795
:100DF000AAE0CA2EC8E2CC9EC02D1124D0E08C17E8
:100E00009D0750F021E0EC01C21206C0C13187E21B
:100E1000D80710F0C0E1D7E24E01B12CA12C4C2C28
:100E2000512C712C612C9E01AFEFB7E00E94FC1C8D
:100E3000640D751D861D971D969587957795679509
:100E4000A30192010E94AD1C60E072E18AE790E08C
:100E5000312C3394621773078407950728F0969511
:100E6000879577956795F5CFA30192010E947D1C28
:100E70009E0136952795620F731F811D911DA50157
:100E800094010E94AD1C722E022F132F2AE0C21271
:100E900007C0CE0105966AE070E00E94991CEB0144
:100EA000C83E83E0D80759F09701DE010E94FC1C80
:100EB00028EE33E040E050E00E94CF1C7901109210
:100EC00072008091C100807F83298093C1001093BC
:100ED000BF007092D1004D2D403108F04FE080E10D
:100EE00090E0841B910902C0169507958A95E2F758
:100EF0001093BF000093D200F0929A01E092990102
:100F000089B38FEF89BB84E080937200DF91CF912A
:100F10001F910F91FF90EF90DF90CF90BF90AF9017
:100F20009F908F907F906F905F904F903F9008952B
:100F3000CF93DF93EC01888581110EC0898591E004
:100F400098879A8562E0911101C060E00E94D70302
:100F50008FE090E00197F1F789850E9480033B853F
:100F600021E03817190609F420E0822FDF91CF9194
:100F70000895CF93DF93EC01E881F9810190F0812E
:100F8000E02D09959FB7F8944091200250912102DD
:100F900060912202709123029FBF9A81913081F06B
:100FA00030F09230D9F09330F9F080E006C0811132
:100FB000FCCF5C834B8391E09A83DF91CF910895BE
:100FC000882311F01A82F1CF2B813C81421B530BF5
:100FD0004F30510590F382E08A83E7CF882369F38D
:100FE0005C834B8383E0F8CF8823A9F32B813C817A
:100FF000421B530B4F305105C0F21A82DECF2E98A0
:10100000269A2D98259A2A98229A2998219A80EA38
:101010008093800081E18093810080E991E090934A
:1010200087008093860010928900109288001092A9
:101030008B0010928A000895CF93DF93EC0180918A
:101040009401811105C081E0809394010E94FF0703
:1010500080E0D7FF04C0D195C195D10981E0C139A5
:1010600091E0D90714F0C0E9D1E0D0938900C09392
:101070008800882329F0299A219ADF91CF91089539
:101080002998FACFCF93DF93EC01809194018111DD
:1010900005C081E0809394010E94FF0780E0D7FFA4
:1010A00004C0D195C195D10981E0C13991E0D9073A
:1010B00014F0C0E9D1E0D0938B00C0938A0088235C
:1010C00029F02A9A229ADF91CF9108952A98FACF8F
:1010D0007F928F929F92AF92BF92CF92DF92EF92C8
:1010E000FF920F931F93CF93DF93FC0122853385EB
:1010F000232B09F476C06B01EC0110E08C851817E6
:10110000E8F4E12EF12C8E859F85F701EE0FFF1F8D
:10111000EC0DFD1D91838083EA85FB85EE0DFF1D9F
:1011200061E080810E94A903EA85FB85EE0DFF1D29
:1011300061E080810E94D7031F5FE0CF83E290E0EF
:101140000197F1F710E08C851817A0F4E12EF12C2F
:10115000EA85FB85EE0DFF1D60E080810E94D703CC
:10116000EA85FB85EE0DFF1D60E080810E94A903EA
:101170001F5FE9CF0E9435044B015C010E943504DA
:10118000AB01BC01481959096A097B098E859F8505
:10119000B0E0A0E0481759076A077B0710F50E94E6
:1011A00035047B01E818F908712C8C85781630F726
:1011B000072D10E0EA85FB85E00FF11F80810E947A
:1011C0008003892B61F4000F111FF601E00FF11F5E
:1011D00080819181E816F90610F4F182E08273941F
:1011E000E4CFDF91CF911F910F91FF90EF90DF90AF
:1011F000CF90BF90AF909F908F907F900895289A46
:10120000209A08952898209A08955F926F927F926D
:101210008F929F92AF92BF92CF92DF92EF92FF9206
:101220000F931F93CF93DF935C01D62FC42FF22E21
:10123000132F0E9402098D2F806B0E94B4028C2F05
:1012400082958F7080610E94B4028C2F8F700E94F3
:10125000B4020E94FF08CF2DD12F0C0F1D2F111D9E
:1012600095E0692EC017D10709F444C07990872D05
:101270008052990B9C01629EC001639E900D1124C7
:10128000769C40011124F12CE12C9C0124553F4F08
:1012900069013FE1371508F5F601EE0DFF1DE491F8
:1012A000F0E084E0F595E7958A95E1F7E457FD4F86
:1012B0005490852D0E94B402852D0E94B4029FEFA8
:1012C000E91AF90A25E0E216F10419F780E00E9414
:1012D000B40280E00E94B402C5CF87E0E0E0871549
:1012E000F8F2F401EE0DFF1DE254FF4FEA0DFB1D75
:1012F000E081D6CFDF91CF911F910F91FF90EF90BA
:10130000DF90CF90BF90AF909F908F907F906F9025
:101310005F9008955F926F927F928F929F92AF92AB
:10132000BF92CF92DF92EF92FF920F931F93CF93D2
:10133000DF935C01D62FC42FF22E132F0E940209D7
:101340008D2F806B0E94B4028C2F82958F708061EC
:101350000E94B4028C2F8F700E94B4020E94FF087A
:10136000CF2DD12F0C0F1D2F111D85E0682EC0171A
:10137000D10709F440C07990872D8052990B9C01C8
:10138000629EC001639E900D1124769C4001112441
:10139000F12CE12C9C0124553F4F69013FE13715A9
:1013A000E8F4F601EE0DFF1DE491EF70F0E0E45774
:1013B000FD4F5490852D0E94B402852D0E94B402E9
:1013C0009FEFE91AF90A25E0E216F10439F780E007
:1013D0000E94B40280E00E94B402C9CF87E0E0E03E
:1013E000871518F3F401EE0DFF1DE254FF4FEA0DCF
:1013F000FB1DE081DACFDF91CF911F910F91FF901C
:10140000EF90DF90CF90BF90AF909F908F907F90A4
:101410006F905F9008956F927F928F929F92AF929C
:10142000BF92CF92DF92EF92FF920F931F93CF93D1
:10143000DF935C01D62FC42FF22E132F0E940209D6
:101440008D2F806B0E94B4028C2F82958F708061EB
:101450000E94B4028C2F8F700E94B4020E94FF0879
:10146000CF2DD12F0C0F1D2F111D85E0682EC01719
:10147000D107A9F17990872D8052990B9C01629E2A
:10148000C001639E900D1124769C40011124F12C23
:10149000E12C9C0124553F4F69013FE1371588F449
:1014A000F601EE0DFF1D84910E94B4029FEFE91A30
:1014B000F90A25E0E216F10481F780E00E94B40207
:1014C000D6CF87E0871548F0F701E80DF91DE25403
:1014D000FF4FEA0DFB1D8081E7CF80E0E5CFDF9174
:1014E000CF911F910F91FF90EF90DF90CF90BF9021
:1014F000AF909F908F907F906F900895282F21FB41
:101500000EF0209820FB0EF028980EF4289A21FB6C
:101510000EF4209A0895282F21FB0EF0559820FBF9
:101520000EF05D980EF45D9A21FB0EF4559A089525
:10153000CF93DF93EC0188810E948B0A89810E94FE
:101540007E0AE9EEF0E010828C818093F0008B81BE
:1015500080838A818093E200DF91CF910895FC011E
:10156000A2EEB0E08C9182831C92A9EEB0E08C9147
:1015700083831C92A0EFB0E08C9184831C9220E0C6
:101580005D99216055992260208320E0289921608F
:101590002099226021835D98559A0895CF92DF9219
:1015A000EF92FF920F93CF93DF93EC017C0184E0E5
:1015B000E80EF11CC7010E94AF0A6E0184E1C80E5B
:1015C000D11C08E0960143E162E0CE010E948A0945
:1015D000960143E163E0CE010E9405096E0189E2B4
:1015E000C80ED11C960143E165E0CE010E948A0934
:1015F000960143E166E0CE010E940509C701DF9133
:10160000CF910F91FF90EF90DF90CF900C94980ABC
:10161000EF92FF920F93CF93DF93EC017C0184E074
:10162000E80EF11CC7010E94AF0A9E012C5E3F4FDD
:1016300005E142E060E0CE010E940B0A9E01275DB9
:101640003F4F42E061E0CE010E940B0A9E01225C06
:101650003F4F42E062E0CE010E940B0A9E012D5AEC
:101660003F4F42E063E0CE010E940B0A9E012859E1
:101670003F4F42E064E0CE010E940B0A9E012358D6
:101680003F4F42E065E0CE010E940B0A9E012E56BC
:101690003F4F42E066E0CE010E940B0A9E012955B1
:1016A0003F4F42E067E0CE010E940B0AC701DF9185
:1016B000CF910F91FF90EF900C94980AEF92FF92C8
:1016C0000F931F93CF93DF938C017C0184E0E80E8E
:1016D000F11CC7010E94AF0A0E94020982E00E9429
:1016E000B402C0E00E9402098C2F806B0E94B402F9
:1016F00080E10E94B4020E94FF08D0E080E00E94D6
:10170000B402DF5FD038D1F7CF5FC83059F7C701D7
:101710000E94980AF8011286DF91CF911F910F91D4
:10172000FF90EF900895AF92BF92CF92DF92EF9229
:10173000FF920F931F93CF93DF937C01122F68309A
:1017400008F043C0423008F040C088E0861B821792
:10175000D0F12223D1F1C42FCC0FC40FDCE06D9F58
:10176000D02D1124DD5E670124E1C20ED11C862F2D
:1017700090E025E1429F800D911D1124C80ED91ED5
:10178000570184E0A80EB11CC5010E94AF0A62E0B7
:101790006C0F012F96014D2FC7010E948A0963E04B
:1017A0006C0F96014D2FC7010E940509C501DF91FD
:1017B000CF911F910F91FF90EF90DF90CF90BF904E
:1017C000AF900C94980A182FC6CFDF91CF911F913C
:1017D0000F91FF90EF90DF90CF90BF90AF90089562
:1017E000BF92CF92DF92EF92FF920F931F93CF930E
:1017F000DF93EC01162FB42E022F653198F527E008
:10180000241780F185E1861B801750F1002351F1E8
:10181000CE014496E12EF12C25E1B29EE00CF11CA4
:101820001124E80EF91E6E0184E0C80ED11CC60119
:101830000E94AF0A412F440F410F440F4E5F9701A2
:101840006B2DCE010E940B0AC601DF91CF911F9133
:101850000F91FF90EF90DF90CF90BF900C94980A7B
:10186000082FD6CFDF91CF911F910F91FF90EF906E
:10187000DF90CF90BF900895089590E080E00895A4
:101880009F92AF92BF92CF92DF92EF92FF920F930F
:101890001F93CF93DF9380919F029091A002892B99
:1018A00009F450C08091A1029091A202892B09F401
:1018B00049C00E94240466E372E08DE992E00E9430
:1018C00068080E941304E090A902F12C06E312E0DC
:1018D000C090A102D090A202A0909F02B090A0025E
:1018E000D0E0C0E0CE15DF056CF5D601ED91FD919D
:1018F0006D01D5018D919D915D01E81BF90BD1F032
:10190000D8012D913C9150E040E0281B390B410952
:101910005109A8EEB3E00E94121D9F0150E040E083
:101920000E94CF1C293EB3E03B0714F028EE33E0C1
:1019300037FF02C030E020E0F801219331938F019E
:101940002196D0CFE091A90286E3A82E82E0B82E9E
:1019500010E000E050E040E0C12CD12C7601912C49
:10196000F0E0EF17D9F0D501CD91DD915D01C93CD3
:10197000D1058CF4C333D10554F09801DE010E94E7
:10198000F41CC60ED71EE81EF91E4C0F5D1FFF5F2C
:1019900008511C4FE6CF99249394EFCF911027C0A4
:1019A000E150FF0B44EF51E0E49FC001E59F900D33
:1019B000F49F900D11244091AD025091AE02481752
:1019C000590714F148EE53E0E49FC001E59F900DE4
:1019D000F49F900D1124DF91CF911F910F91FF90F3
:1019E000EF90DF90CF90BF90AF909F9008959A01B5
:1019F00050E040E0C701B6010E94AD1CC901309320
:101A0000AE022093AD02E7CF90E080E0E4CF0E94E9
:101A1000FF1E1F93CF93DF9385ED8093BC008091D1
:101A2000A1019091A201A091A301B091A4010796F8
:101A3000A11DB11D23E0B695A795979587952A9589
:101A4000D1F72091BC0024FD03C01092E90152C0DF
:101A50004091A1015091A2016091A3017091A40154
:101A6000452B462B472B69F30097A105B10541F0A3
:101A70002AE22A95F1F700C00197A109B109E1CF47
:101A80008091A001C1E0C0939F01882399F1D0917A
:101A9000B8001091BA008091BC008A7B8093BC0092
:101AA00060E082E00E94A90360E083E00E94A90355
:101AB0001092E901C093EB011092EA0161E082E02B
:101AC0000E94A90361E083E00E94A9038091B9000C
:101AD0008E7F8093B9008091B9008D7F8093B9008B
:101AE00088E48093B80085E48093BC001093BA002A
:101AF000D093B800DF91CF911F9108950F931F935A
:101B0000CF93DF93EC015B98539A5A98529A85E3EE
:101B10008A95F1F700005A9A529A85E38A95F1F76F
:101B20000000CE010E945E0B8E010C5F1F4FC801AA
:101B30000E94AF0A0E94020981EA0E94B40288EC66
:101B40000E94B40281E80E94B4028FEF0E94B402A6
:101B50008FEA0E94B402C8010E94980A81E0898736
:101B6000DF91CF911F910F910895FF920F931F93D3
:101B7000CF93DF93EC01162F042FF22E898581116C
:101B800003C0CE010E947E0D8A85882319F0CE0104
:101B90000E945E0B2A893B89C901959587958C0F18
:101BA0009D1FE889F98920FF08C0DC012D913C9137
:101BB000E20FF31F0190F081E02D2F2D402F612FB8
:101BC000DF91CF911F910F91FF900994CF93DF93F5
:101BD000DC01A354BF4F2C91283008F5EC01C4540C
:101BE000DF4FE881E531D8F4AC0175E1279F400D66
:101BF000511D1124E40FF52FF11D648BFC01238589
:101C0000211105C021E04C9168810E94B50D8881A9
:101C10008F5F888381E090E0DF91CF91089590E01D
:101C200080E0FACF0F931F93CF93DF938C01D0E026
:101C3000C0E0F801EC0FFD1F6491662341F08FEACC
:101C400092E00E94E60D892B11F02196F2CFCE0191
:101C5000DF91CF911F910F91089548EA50E060E223
:101C600070E083EC92E00E940D1F10926B031092C3
:101C70006C038091BA0281112AC08091B80281114F
:101C800004C08FEA92E00E947E0D8091B902882301
:101C900021F08FEA92E00E945E0B2091BD0230910C
:101CA000BE02C9019595879581559D4FE091BB0274
:101CB000F091BC0220FF08C0DC012D913C91E20FA5
:101CC000F31F0190F081E02D09951092BA0208955A
:101CD000AF92BF92CF92DF92EF92FF920F931F933A
:101CE000CF93DF9382EEE82EF12CF7010081108272
:101CF000C9EED0E0B880188290EFC92ED12CF60141
:101D0000A080108220E02899216020992260822FF3
:101D10002098289A90E19A95F1F713B10E947E0AD3
:101D20001882F601A082B882F7010083812F809586
:101D30008170DF91CF911F910F91FF90EF90DF9015
:101D4000CF90BF90AF900895AF92BF92CF92DF92A5
:101D5000EF92FF920F931F93CF93DF9382EEE82EC3
:101D6000F12CF701D081108209EE10E0F801B0806B
:101D7000108290EFC92ED12CF601A080108220E0B5
:101D80005D99216055992260822F55985D9A90E166
:101D90009A95F1F7C9B10E948B0AF8011082F601F9
:101DA000A082F801B082F701D0838C2F90E025E06B
:101DB000959587952A95E1F7809590958170DF91AB
:101DC000CF911F910F91FF90EF90DF90CF90BF9038
:101DD000AF900895BF92CF92DF92EF92FF920F9350
:101DE0001F93CF93DF938C01EA016C012DEBC20EA0
:101DF000D11CF60130813830D8F57C01FCEBEF0EB8
:101E0000F11CF7018081853198F525E1281B90E0D0
:101E10002417150620F4C5E1D0E0C81BD90BF5E165
:101E20003F9F800D911D1124AE0198012C5E3F4F04
:101E3000820F931F0E94041FBC2EF801838581111D
:101E400008C02C2FF6014081F7016081C8010E9473
:101E5000B50DF70180818B0D8083CE01DF91CF918D
:101E60001F910F91FF90EF90DF90CF90BF9008955A
:101E7000D0E0C0E0F2CF8F929F92AF92BF920F93CB
:101E80001F93CF93DF93CDB7DEB7A1970FB6F8942A
:101E9000DEBF0FBECDBF19A2423008F44AE08E016A
:101EA0000F5D1F4F842E912CB12CA12CA501940104
:101EB0000E94AD1CE62FB901CA01EA3044F5E05D8D
:101EC000D801EE938D01232B242B252B79F790E05D
:101ED00080E0109769F0FD0101900020E9F731974B
:101EE000AF014A1B5B0BBD018FEA92E00E94EA0E34
:101EF000A1960FB6F894DEBF0FBECDBFDF91CF9194
:101F00001F910F91BF90AF909F908F900895E95CC3
:101F1000D7CFCF92DF92EF92FF92CF93DF936C01F6
:101F2000990FEE08FF08F7FE19C06DE28FEA92E004
:101F30000E94E60DEC0166277727CB016C197D091D
:101F40008E099F094AE00E943B0F8C0F9D1FDF9175
:101F5000CF91FF90EF90DF90CF9008954AE0C701B6
:101F6000B601DF91CF91FF90EF90DF90CF900C946E
:101F70003B0F1F920F920FB60F9211242F933F9396
:101F80008F939F93AF93BF938091200290912102F2
:101F9000A0912202B091230230911F0223E0230F6F
:101FA0002D3758F50196A11DB11D20931F02809376
:101FB000200290932102A0932202B09323028091E9
:101FC000240290912502A0912602B0912702019649
:101FD000A11DB11D8093240290932502A093260297
:101FE000B0932702BF91AF919F918F913F912F9115
:101FF0000F900FBE0F901F90189526E8230F0296A2
:10200000A11DB11DD2CF1F920F920FB60F921124B6
:102010002F933F934F935F936F937F938F939F93F0
:10202000AF93BF93EF93FF93E0911E01F0911F01D7
:102030000995FF91EF91BF91AF919F918F917F9102
:102040006F915F914F913F912F910F900FBE0F9025
:102050001F9018951F920F920FB60F9211242F9375
:102060003F934F935F936F937F938F939F93AF9320
:10207000BF93EF93FF93E0911C01F0911D0109952F
:10208000FF91EF91BF91AF919F918F917F916F9150
:102090005F914F913F912F910F900FBE0F901F9026
:1020A00018951F920F920FB60F9211242F933F9302
:1020B0004F935F936F937F938F939F93AF93BF9350
:1020C000EF93FF93E0911A01F0911B010995FF91A5
:1020D000EF91BF91AF919F918F917F916F915F91A0
:1020E0004F913F912F910F900FBE0F901F90189519
:1020F0001F920F920FB60F9211242F933F934F937D
:102100005F936F937F938F939F93AF93BF93EF935F
:10211000FF93E0911801F09119010995FF91EF915A
:10212000BF91AF919F918F917F916F915F914F91EF
:102130003F912F910F900FBE0F901F9018951F92F7
:102140000F920FB60F9211242F933F934F935F93EB
:102150006F937F938F939F93AF93BF93EF93FF936F
:10216000E0911601F09117010995FF91EF91BF9150
:10217000AF919F918F917F916F915F914F913F911F
:102180002F910F900FBE0F901F9018951F920F92D6
:102190000FB60F9211248F939F938091E10090913D
:1021A000E100937F9093E10083FF0FC01092E9005C
:1021B00091E09093EB001092EC0092E39093ED008D
:1021C0001092350298E09093F00082FF22C093E0D5
:1021D0009093E9009091F200992319F09AE390937B
:1021E000E80090911402992341F0909114029150CB
:1021F00090931402911101C05D9A90913402992339
:1022000041F090913402915090933402911101C0A9
:10221000289A84FF18C08091E2008E7E81608093AE
:10222000E2008091E1008F7E8093E10080911502B1
:102230008E7E8061809315029F918F910F900FBECB
:102240000F901F90189580FFF7CF8091E2008E7E4F
:1022500080618093E2008091E1008E7E8093E100B6
:10226000809115028E7E8160E5CF1F920F920FB68E
:102270000F921124CF92DF92EF92FF920F931F9350
:102280002F933F934F935F936F937F938F939F937E
:10229000AF93BF93EF93FF93CF93DF93CDB7DEB7A9
:1022A0006C97DEBFCDBF1092E9008091E80083FFFC
:1022B00025C068E0CE0145960E94120582EF80930A
:1022C000E8008D8987FF39C09091E80090FFFCCF2E
:1022D000982F907609F034C19E894F89588D2F89A7
:1022E000F88C911131C0803861F58091160280938D
:1022F000F1001092F1008EEF8093E8006C960FB61B
:10230000F894DEBF0FBECDBFDF91CF91FF91EF916B
:10231000BF91AF919F918F917F916F915F914F91FD
:102320003F912F911F910F91FF90EF90DF90CF90F1
:102330000F900FBE0F901F9018959EEF9093E8009E
:10234000C7CF1092F100D5CF913059F48111D3CF7E
:102350004130510581F6809116028D7F80931602DF
:10236000CACF933049F48111C6CF4130510519F6D7
:10237000809116028260F2CF953041F48091E8009E
:1023800080FFFCCF20682093E300B5CF963009F0A2
:10239000A9C00B8D1C8D22E01092E9001092120250
:1023A00010921102F2122EC01092100210920F021F
:1023B0000E94E1041F8299E09983FA8291E09E8352
:1023C00090EA98879AEF9987209111023091120232
:1023D000275F3F4F3C832B838D831092E90010923F
:1023E0001202109211021093100200930F0249E0A2
:1023F00050E0BE016F5F7F4F80E00E94BB040E94EF
:10240000E10479CF1093100200930F020E94200381
:10241000DC0112960D911C910115110509F451C1B1
:10242000D801ED91FC910480F581E02DBE016B5E39
:102430007F4FC8010995009709F03EC1F80100855A
:102440001185EACFF3E0FF120EC08F89882309F4CB
:1024500040C0823061F440E862E187E093E00E948E
:10246000C416811148CF81E28093EB0047CF8130C1
:1024700029F440E862E184EF92E0F1CF833099F7EC
:102480000E942003DC011296ED90FC908E010F5FFC
:102490001F4F6801E114F10479F0D701ED91FC912F
:1024A0000680F781E02DB801C7010995080F111DBD
:1024B000F701E084F184EECFD8011C92F60101907F
:1024C0000020E9F73197BF016C197D0940E0C60192
:1024D000C6CF6EED72E0FB01449150E080E80E94AF
:1024E000BB0409CF973009F4BECF983021F481E0C6
:1024F0008093F10000CF993009F0FDCE837009F090
:10250000B2CFE8E4F1E081E031E096E321912223CB
:1025100071F08093E9003093EB00DF0111972C916B
:102520002093EC009093ED008F5F873079F78EE772
:102530008093EA001092EA008F8980933502DBCE07
:102540008B8D9C8D1092E900109212021092110254
:102550009093100280930F02898D811192C08E8911
:102560009D89913A49F4813209F07DCF47E050E0EE
:102570006EE071E080E0B3CF913209F074CF833226
:1025800069F48F89988DB0E0A0E080930A01909360
:102590000B01A0930C01B0930D01ADCE803269F414
:1025A0008091E80082FFFCCF67E08EE091E00E941E
:1025B00012058BEF8093E8009ECE823209F09BCE0D
:1025C0008F8980931501EEEFFFE7859194918B3F02
:1025D0009C4D51F1E0E0F8E080910E0190910F01E7
:1025E000A0911001B0911101803B9440A105B1056B
:1025F000F1F48091150180FD1AC0EE3F8AE0F807E2
:1026000089F587E797E791838083809160008093C5
:10261000130288E19BE00FB6F894A89580936000C0
:102620000FBE9093600067CEEEEFFAE0D5CF8081C9
:1026300091818737974709F05ECEA8958091600019
:102640008861809360008091130280936000EE3F68
:102650002AE0F20789F08091FE0A9091FF0A9183A7
:10266000808349CE808191818737980751F290937A
:10267000FF0A8093FE0AC5CF1092FF0A1092FE0A4D
:102680003ACE0E942003DC0112960D911C91011597
:10269000110509F4E8CED801ED91FC910190F0818B
:1026A000E02DBE016B5E7F4FC8010995811123CEDD
:1026B000F80100851185EBCF181619060CF41BCE16
:1026C000D2CEF1E0FF12BECE62EE72E004CF1F92D6
:1026D0000F920FB60F9211242F933F934F935F9356
:1026E0006F937F938F939F93AF93BF93EF93FF93DA
:1026F0008091B900887F803609F44AC0F0F58832AD
:1027000009F4A5C018F5803109F499C0B8F48823FC
:1027100009F4F5C0883009F492C0FF91EF91BF91A0
:10272000AF919F918F917F916F915F914F913F9169
:102730002F910F900FBE0F901F901895883109F4BC
:1027400086C0803251F78093E80114C0803409F4C8
:102750009BC040F48033B9F38833F9F68093E801E5
:1027600085ECAEC0803509F483C0883509F494C087
:10277000883499F60E94090DD0CF883909F48AC0AF
:1027800038F5883729F050F4883611F0803729F66B
:1027900083E08093E9011092E70155C0883809F47D
:1027A00079C0803919F0803809F0B7CF8091E701FE
:1027B000803208F06FC0E091E70181E08E0F8093D6
:1027C000E7018091BB00F0E0E953FE4F80833BC0FE
:1027D000803B39F0D0F4803A09F477C0883A09F0A8
:1027E0009CCF84E08093E9011092C6011092C5014C
:1027F000F0E0E0E009958091C50181110FC081E012
:102800008093C5011092A50109C0803C09F4A8CFAE
:10281000883C09F4A5CF883B09F07FCFE091C60141
:1028200081E08E0F8093C601F0E0EB55FE4F808172
:102830008093BB009091C6018091C50129C0809111
:102840000E028093BB0085EC8093BC0066CF909114
:102850000D0280910C02981758F5E0910D0281E06D
:102860008E0F80930D02F0E0E451FE4F8081E9CF9E
:10287000E0910D0281E08E0F80930D028091BB00EC
:10288000F0E0E451FE4F808390910D0280910C02A4
:102890009817C8F285E8D8CFE0910D0281E08E0F3D
:1028A00080930D028091BB00F0E0E451FE4F8083E5
:1028B0008091EB0181115ECF81E08093EA0184EA8F
:1028C0008093BC001092E90128CF85EC8093BC0076
:1028D0001092E9018091E701803230F4E091E70144
:1028E000F0E0E953FE4F10826091E70170E087EC61
:1028F00091E0F0E0E0E009951092E7010ECF109230
:10290000E80138CF1F920F920FB60F9211244F9209
:102910005F926F927F928F929F92AF92BF92CF926F
:10292000DF92EF92FF920F931F932F933F934F935A
:102930005F936F937F938F939F93AF93BF93CF9347
:10294000DF93EF93FF93C0919901D0919A01CE014B
:10295000019790939A01809399012097A1F5109285
:10296000720078948091C100807F84608093C10060
:1029700083E08093BF0088EE8093D1001092BF0067
:102980001092D20081E08093090180919C01909186
:102990009D01892BC1F080919701811114C0709025
:1029A000080180919601882379F18091950188230F
:1029B00059F16091950170E040E088EE93E00E944B
:1029C000BF0610929501FF91EF91DF91CF91BF91DA
:1029D000AF919F918F917F916F915F914F913F91B7
:1029E0002F911F910F91FF90EF90DF90CF90BF90AC
:1029F000AF909F908F907F906F905F904F900F90CF
:102A00000FBE0F901F9018955524539470ECA72E6D
:102A10007DE5B72EEAE04E2EF4E06F2EA0EDCA2E33
:102A2000A7E0DA2EB4E0EB2EF12C04EF11E08FE0FA
:102A3000882E912C0E94760620919C0130919D0158
:102A40002F5F3F4F30939D0120939C01853609F401
:102A500073C00CF047C0813609F4B4C024F58C3340
:102A600009F468C08E3309F463C0813209F043C0B1
:102A700060920801D0920501C0920401F092070112
:102A8000E09206011093030100930201909201016C
:102A900080920001109296017090080180910201CD
:102AA00090910301C7CF833609F48FC010E00BE08B
:102AB000843614F010E002E04CE0749E000D112406
:102AC0000E947606982F977F933209F080C08091FC
:102AD0009C0190919D01019690939D0180939C0192
:102AE0000F5FEECF8D3609F445C054F4873651F1AF
:102AF00034F18C3651F110929D0110929C0163CFFC
:102B0000823709F44CC044F48F36A9F70E94970627
:102B1000782E809308018ECF843709F443C086371E
:102B200051F70E949706909301018093000182CF94
:102B3000739480CF7A947ECF10E004E0BDCF10E094
:102B400005E0BACF10E007E0B7CF0E949706909358
:102B50000701809306018091040190910501609125
:102B60000601709107010E94991C70930301609304
:102B7000020160CF0E9476068C3661F410929601B5
:102B800080919C0190919D01019690939D0180936D
:102B90009C0150CF5092960110929501F1CF11E017
:102BA00000E08ACF0E949706BC01C5010E94991CD3
:102BB000469EC001479E900D11249093050180937D
:102BC0000401C9CF10E009E077CF10E0E9CF8D32E2
:102BD00069F480919C0190919D01019690939D01D3
:102BE00080939C0101500E947606F1CFE090020193
:102BF000F09003018153883058F4E0900401F09084
:102C000005010E949706BC01C7010E94991C7B0127
:102C10006701D694C7940E9476068E3261F4809143
:102C20009C0190919D01019690939D0180939C0140
:102C3000EC0CFD1CEECF80919601882349F0C70172
:102C4000969587958093950180919501E81AF108F2
:102C5000C0900001D0900101111104C00F3F11F08C
:102C6000C11007C040E0B70188EE93E00E94BF06A4
:102C7000AACE013128F010EF100F103608F01FE532
:102C8000812F6CE00E948D1C582F44EF450390016A
:102C90001124210F311D2C30310538F4220F331F40
:102CA000F901E15DFE4FC081D1818730C1F0082E6E
:102CB00002C0CC0FDD1F0A94E2F7823040F0CE0153
:102CC00005966AE070E00E94991CCB0102C0CE011B
:102CD00090584C2D403108F04FE0B701C7CFCE01DE
:102CE00026E0880F991F2A95E1F7029665E070E0CB
:102CF000EACF1F920F920FB60F9211242F933F939A
:102D00004F936F937F938F939F938CB1282F30E0D5
:102D10003595279535952795422F417083B190E0E1
:102D200064E0959587956A95E1F7822781702091F7
:102D300093019091920160919001709191012827E7
:102D40009427291B330B260F371F309391012093B3
:102D500090012091920190919301281729F09417E6
:102D600019F091E090938F01809392014093930129
:102D70009F918F917F916F914F913F912F910F90E4
:102D80000FBE0F901F901895EF92FF920F931F9315
:102D9000CF93DF93F82E192FE62E042F81E0860FB4
:102DA000880F0E948D0483E00E948D04CF2DD12FC7
:102DB000EC0EFD2EF11CCE15DF05B9F007FF13C098
:102DC000FE0184910E948D04182F80E00E948D04E2
:102DD000812321968111EFCFDF91CF911F910F9128
:102DE000FF90EF9008958881EDCF81E0F5CF1F939C
:102DF000CF93DF93E0E4F2E01382128288EE93E057
:102E0000A0E0B0E084839583A683B78382E591E058
:102E1000918380838FEF9FEF95878487E7EAF3E0C4
:102E20001282158210868EE0818711E01287138747
:102E300088E891E091838083EFE9F3E012821582C4
:102E400082E891E091838083E7E9F3E012821582C2
:102E500086E791E091838083CFEAD2E01B821A82D9
:102E600048EA50E060E270E083EC92E00E940D1FBF
:102E700010929603109295038EEC9AE09D878C87B2
:102E80001F861E8683E99BE0998B888B1B8A1A8A92
:102E90001A878AE691E099838883EDE9F2E013824C
:102EA000128215821482178216821186108613866A
:102EB000128684E691E091838083E0E9F2E011825A
:102EC000108212828FEF838315821482168285EA24
:102ED00091E09287818782E492E09487838784EAF5
:102EE00091E090878783DF91CF911F910895CF93D1
:102EF000DF93CDB7DEB7C456D1090FB6F894DEBF65
:102F00000FBECDBF789484B5826084BD84B58160E6
:102F100084BD85B5826085BD85B5816085BD8091A4
:102F20006E00816080936E0010928100809181001C
:102F30008260809381008091810081608093810014
:102F400080918000816080938000809191008260F8
:102F50008093910080919100816080939100809195
:102F600090008160809390008091C1008460809384
:102F7000C1008091C10082608093C1008091C10036
:102F800081608093C1008091C30081608093C30001
:102F90008091C00082608093C0008091C2008160F7
:102FA0008093C20080917A00846080937A0080913F
:102FB0007A00826080937A0080917A0081608093A9
:102FC0007A0080917A00806880937A0010923502AE
:102FD00010921602109215028091D70081608093A2
:102FE000D70080EA8093D80089B5806189BD89B512
:102FF000826089BD09B400FEFDCF61E070E080E031
:1030000090E00E945A048091D8008F7C8061809368
:10301000D8008091E000807F8093E0008091E10003
:103020008E7E8093E1008DE08093E200559A209A95
:103030008FEF9FEF90934D0280934C0285E0EAE280
:10304000F1E0DE01119601900D928A95E1F7109260
:10305000A00210929F021092A2021092A10210925E
:10306000A4021092A3021092A6021092A50210923E
:10307000AE021092AD0285E08093A9028091A70272
:103080009091A802892BC9F080E09091A90289173C
:1030900008F05FC0282F30E0E091A702F091A8026D
:1030A000E20FF31F41E050E04C0F5D1F240F351F6E
:1030B000D9019C9190838F5FE8CF85E090E00E94DA
:1030C0001D1D9093A8028093A702892BE9F680ED3D
:1030D00097E09093AC028093AB028BE080939302D5
:1030E00069E070E080919002909191020E94421EEE
:1030F000FC01009769F0909391028093900283E025
:103100008093920284E1808386E1838384E08683D6
:103110000E942404E4E04E2E512CF3E06F2E712C1B
:1031200064E6262E312CEE24E394F12C00911D024E
:1031300010911E020130110509F4A2C074F4012B94
:1031400009F47CC020E030E0232B81F30E940000D2
:10315000E7CF8BE08093AA02BACF0230110509F4C1
:10316000ECC00330110571F780911B0290911C0295
:103170008230910509F482C30CF01BC3009709F457
:1031800026C30197F9F610926B0310926C0386E543
:1031900094E00E94120E10926B0381E080936C0306
:1031A0008DE494E00E94120E10926B0383E08093F2
:1031B0006C038FE394E00E94120E10926B0384E084
:1031C00080936C038FE294E00E94120E10926B03C6
:1031D00086E080936C0381E294E00E94120E1092CC
:1031E0006B0387E080936C038CE194E00E94120EE5
:1031F00087EA93E00E94B907882341F0E2E0F0E01B
:10320000F0931C02E0931B020E942D0E8FE993E0C5
:103210000E94B907882331F070921C0260921B0251
:103220000E942D0E87E993E00E94B907882309F4D4
:1032300089CF10921C0210921B021DC3109296039C
:1032400010929503E8E0FBE0F093BC02E093BB0230
:103250001092BE021092BD0220EF3BE03093C002FC
:103260002093BF021092C2021092C10281E08093AB
:10327000B9020E942D0EF0921E02E0921D0262CF52
:1032800010926B0310926C0380E593E00E94120E83
:1032900010926B0381E080936C0385E493E00E94BD
:1032A000120E10926B0383E080936C0387E393E02C
:1032B0000E94120E10926B0384E080936C038AE2EA
:1032C00093E00E94120E10926B0386E080936C03D1
:1032D0008CE193E00E94120E10926B0387E08093C2
:1032E0006C038AE193E00E94120E87EA93E00E9449
:1032F000B907882341F00E942D0E42E050E0509320
:103300001E0240931D028FE993E00E94B9078823B3
:1033100031F00E942D0E70921E0260921D0287E90C
:1033200093E00E94B907882309F40CCF0E942D0E68
:1033300050921E0240921D0205CF80911902909179
:103340001A028130910509F460C10CF051C0892B3B
:1033500009F0F8CE10926B0310926C0381E793E0B2
:103360000E94120E10926B0313E010936C0387E619
:1033700093E00E94120E8CE080936B0310936C0319
:103380008EE593E00E94120E87EA93E00E94B9074F
:10339000882309F42CC10E942D0E58E7852E912C0C
:1033A00088EC90E00E94420888E39FEF0E941C088E
:1033B0008091A1029091A202892B09F048C000914E
:1033C000A90210E0C801880F991F0E941D1D90934B
:1033D000A2028093A102009709F4F0C0FC0190E0E2
:1033E00080E0801791079CF5119211920196F9CF18
:1033F0008230910509F468C1039709F0A3CE0E94B9
:10340000400C8C0110926B0310926C030E94890F88
:10341000003D37E013070CF0ACC1063D16400CF040
:103420009BC130922301209222018CE291E0909383
:1034300021018093200100912001109121018091B0
:103440002201909123010E944208C80182C180910B
:103450009F029091A002892BE9F40091A90210E04B
:10346000C801880F991F0E941D1D9093A002809390
:103470009F02009709F4A2C02091AB023091AC02E8
:10348000FC0190E080E08017910724F421933193B0
:103490000196F9CF10E000E00E942404BE016F5BAA
:1034A0007F4F8DE992E00E9468080E941304A0906B
:1034B000A902B12CCE010196A3969FAF8EAFA39720
:1034C0009E012F5D3F4FBE016F5B7F4FA5963FAFC3
:1034D0002EAFA597DC0150E040E04A155B0584F56E
:1034E000FB0181919191BF0101151105E1F0A596B4
:1034F000EEADFFADA597C080D180C816D90698F073
:10350000CD90DC9011978C159D05B0F04F5F5F4F0B
:103510001296A5968EAD9FADA5970296A5969FAFE4
:103520008EAFA597DACFA596EEADFFADA5979183A7
:1035300080830115110521F711969C938E93E6CF98
:103540000F5F1F4F0A30110509F0A6CF00919F02AF
:103550001091A002E091A102F091A20290E080E01F
:103560004091A9024817190649F144F1A396AEAD5E
:10357000BFADA3974D915D91A396BFAFAEAFA3979B
:10358000619171916417750730F4BF016250710940
:10359000DB014D935C93D9014D915D919D01D80163
:1035A0006D917D918D014617570730F4BD01625032
:1035B0007109DB014D935C930196D2CF6AE070E014
:1035C00080E090E00E945A04B1E08B1A910809F063
:1035D000E7CE0E942D0E90E080E00E94420890E02D
:1035E00080E00E941C08F0921A02E09219028FE912
:1035F00093E00E94B907882309F4A4CD0E942D0E00
:10360000F0921A02E09219029DCD10926B03109273
:103610006C0384EC93E00E94120E10926B0381E025
:1036200080936C0387EB93E00E94120E10926B0361
:1036300083E080936C0389EA93E00E94120E10925B
:103640006B0384E080936C0387E993E00E94120E81
:1036500010926B0386E080936C0389E893E00E94EC
:10366000120E10926B0387E080936C0384E893E062
:103670000E94120E87EA93E00E94B907882331F076
:103680000E942D0E10931A02009319028FE993E005
:103690000E94B907882331F00E942D0E70921A0201
:1036A0006092190287E993E00E94B907882309F420
:1036B00049CD0E942D0E10921A02109219021092FA
:1036C0001E0210921D023ECD0E94400C8C0189E02A
:1036D00080936B0384E080936C03C8010E94890F80
:1036E000005D17408091170290911802F801E81BC5
:1036F000F90B25E02E9F60012F9FD00C1124C801EB
:1037000017FD03969595879595958795C80ED91EB3
:103710001093180200931702C601845D9E4F8D32EC
:10372000F1E09F0714F08CE291E097FF02C090E077
:1037300080E00E9442088CE291E08C199D098D3254
:1037400021E0920714F08CE291E097FF02C090E034
:1037500080E00E941C08F6CCA0E5B0E0B093230105
:10376000A0932201E8E7F0E0F0932101E09320012B
:1037700062CE003DF7E01F0709F45DCE0B3C184018
:103780005CF04CE251E050932301409322013092CF
:103790002101209220014FCE88E790E090932301F1
:1037A00080932201A0E5B0E0B0932101A093200115
:1037B00042CE8330910509F46AC0049709F0C2CC67
:1037C00010926B0310926C038DE694E05DC0109232
:1037D0006B0310926C0386E094E00E94120E10922C
:1037E0006B0313E010936C038CEF93E00E94120EB6
:1037F0008CE080936B0310936C0383EF93E00E9443
:10380000120E10926B0316E010936C0382EE93E09D
:103810000E94120E02E100936B0310936C0384E686
:1038200090E00E94890F10926B0317E010936C03D5
:1038300082ED93E00E94120E00936B0310936C03D1
:1038400083E690E00E94890F87EA93E00E94B9071F
:10385000882331F0F0921C02E0921B020E942D0E90
:103860008FE993E00E94B907882309F46BCC50924A
:103870001C0240921B020E942D0E64CC10926B031E
:1038800010926C0384E694E00E94120E5BCC1092BE
:103890006B0310926C0389E794E0F6CF8CE791E01C
:1038A00090939E0280939D028091A7029091A8021E
:1038B000009711F00E94B91D8091A1029091A2027F
:1038C000009711F00E94B91D8091A5029091A60267
:1038D000009711F00E94B91D80919F029091A00263
:1038E000009711F00E94B91D8091A3029091A4024B
:1038F000009711F00C94B91D0895DB018F939F93ED
:103900000E94121DBF91AF91A29F800D911DA39F98
:10391000900DB29F900D11240895991B79E004C079
:10392000991F961708F0961B881F7A95C9F78095FE
:103930000895AA1BBB1B51E107C0AA1FBB1FA617F6
:10394000B70710F0A61BB70B881F991F5A95A9F748
:1039500080959095BC01CD010895A1E21A2EAA1B75
:10396000BB1BFD010DC0AA1FBB1FEE1FFF1FA2172F
:10397000B307E407F50720F0A21BB30BE40BF50B2C
:10398000661F771F881F991F1A9469F760957095B5
:10399000809590959B01AC01BD01CF010895052E46
:1039A00097FB1EF400940E94E61C57FD07D00E946E
:1039B000AD1C07FC03D04EF40C94E61C50954095CA
:1039C000309521953F4F4F4F5F4F089590958095CB
:1039D000709561957F4F8F4F9F4F0895EE0FFF1F9A
:1039E0000590F491E02D09940E94FC1C332312F4FD
:1039F0008A1B9B0B0C940D1DA29FB001B39FC001AD
:103A0000A39F700D811D1124911DB29F700D811D0A
:103A10001124911D08950E94FC1CB7FF0895821B7C
:103A2000930B08950E94FC1CA59F900DB49F900DD0
:103A3000A49F800D911D112408950F931F93CF9380
:103A4000DF938230910510F482E090E0E091B503BD
:103A5000F091B60330E020E0B0E0A0E0309799F4B8
:103A60002115310509F44AC0281B390B24303105D2
:103A7000D8F58A819B816115710589F1FB019383DA
:103A80008283FE0111C04081518102811381481758
:103A90005907E0F04817590799F4109761F012960A
:103AA0000C93129713961C933296CF01DF91CF910E
:103AB0001F910F9108950093B5031093B603F4CFAF
:103AC0002115310551F04217530738F0A901DB01E8
:103AD0009A01BD01DF01F801C1CFEF01F9CF909349
:103AE000B6038093B503CDCFFE01E20FF31F8193A0
:103AF00091932250310939832883D7CF2091B30382
:103B00003091B403232B41F42091260130912701F9
:103B10003093B4032093B303209124013091250105
:103B20002115310541F42DB73EB740912801509140
:103B30002901241B350BE091B303F091B403E21784
:103B4000F307A0F42E1B3F0B2817390778F0AC01C0
:103B50004E5F5F4F2417350748F04E0F5F1F50939D
:103B6000B4034093B303819391939FCFF0E0E0E0DF
:103B70009CCFCF93DF930097E9F0FC01329713823B
:103B80001282A091B503B091B603ED0130E020E0C0
:103B90001097A1F420813181820F931F2091B303EC
:103BA0003091B4032817390709F061C0F093B403CA
:103BB000E093B303DF91CF910895EA01CE17DF07B9
:103BC000E8F54A815B819E0141155105B1F7E90194
:103BD000FB83EA8349915991C40FD51FEC17FD0768
:103BE00061F4808191810296840F951FE901998388
:103BF0008883828193819B838A83F0E0E0E0129640
:103C00008D919C9113970097B9F52D913C91119747
:103C1000CD010296820F931F2091B3033091B4031C
:103C20002817390739F6309751F51092B6031092DC
:103C3000B503B093B403A093B303BCCFD383C283C3
:103C400040815181840F951FC817D90761F44E5FD9
:103C50005F4F88819981480F591F518340838A8122
:103C60009B81938382832115310509F0B0CFF093B6
:103C7000B603E093B5039ECFFD01DC01C0CF1382F4
:103C80001282D7CFB0E0A0E0E8E4FEE10C94161F6A
:103C90008C01009751F4CB010E941D1D8C01C801BD
:103CA000CDB7DEB7E0E10C94321FFC01E60FF71F41
:103CB0009C0122503109E217F30708F49DC0D90195
:103CC000CD91DC911197C617D70798F0C530D10573
:103CD00030F3CE0104978617970708F3C61BD70B5E
:103CE0002297C193D1936D937C93CF010E94B91D0C
:103CF000D6CF5B01AC1ABD0A4C018C0E9D1EA09163
:103D0000B503B091B603512C412CF12CE12C109746
:103D100031F58091B3039091B4038815990509F0AA
:103D20005CC04616570608F058C080912401909157
:103D30002501009741F48DB79EB74091280150911D
:103D40002901841B950BE817F90708F055C0F0937B
:103D5000B403E093B303F90171836083A0CF8D9125
:103D60009C91119712966C90129713967C901397D2
:103D7000A815B90559F56C0142E0C40ED11CCA144E
:103D8000DB0420F1AC014A195B09DA0112961597A0
:103D900080F06282738251834083D9016D937C935A
:103DA000E114F10471F0D7011396FC93EE9312978E
:103DB00076CF22968C0F9D1FF90191838083F301AA
:103DC000EFCFF093B603E093B50369CF48165906D9
:103DD00008F42C017D01D3019ACFCB010E941D1D57
:103DE0007C01009749F0AE01B8010E94041FC80190
:103DF0000E94B91D870153CF10E000E050CF81E051
:103E000090E0F8940C944B1FFB01DC0102C0019080
:103E10000D9241505040D8F70895DC0101C06D93D8
:103E200041505040E0F708952F923F924F925F9299
:103E30006F927F928F929F92AF92BF92CF92DF92BA
:103E4000EF92FF920F931F93CF93DF93CDB7DEB71F
:103E5000CA1BDB0B0FB6F894DEBF0FBECDBF0994B3
:103E60002A88398848885F846E847D848C849B840A
:103E7000AA84B984C884DF80EE80FD800C811B8118
:103E8000AA81B981CE0FD11D0FB6F894DEBF0FBE47
:103E9000CDBFED01089512E0C9E8D2E004C0FE01F3
:103EA0000E94EE1C2196CA38D107C9F7F894FFCFBB
:103EB0000F00F401D00704000401FFFFFFFF00E141
:103EC0000000000000008C048C048C048C048C0422
:103ED000640064000000B7038000121415040C9CF9
:103EE00001B501CF01EA0107022602470269028EED
:103EF00002B502DE020A0300C1808100000000005A
:103F00000000A4051F05C505BA050B06C905E70590
:103F100000000000680800000000E60DEA0E3D0CFD
:103F20003C0C00000000680E00000000070D0000BF
:0A3F30000000A40E00000000980736
:00000001FF
